{
  "contractName": "ProductOwnership",
  "abi": [
    {
      "constant": true,
      "inputs": [
        {
          "name": "interfaceId",
          "type": "bytes4"
        }
      ],
      "name": "supportsInterface",
      "outputs": [
        {
          "name": "",
          "type": "bool"
        }
      ],
      "payable": false,
      "stateMutability": "view",
      "type": "function",
      "signature": "0x01ffc9a7"
    },
    {
      "constant": true,
      "inputs": [],
      "name": "name",
      "outputs": [
        {
          "name": "",
          "type": "string"
        }
      ],
      "payable": false,
      "stateMutability": "view",
      "type": "function",
      "signature": "0x06fdde03"
    },
    {
      "constant": true,
      "inputs": [
        {
          "name": "tokenId",
          "type": "uint256"
        }
      ],
      "name": "getApproved",
      "outputs": [
        {
          "name": "",
          "type": "address"
        }
      ],
      "payable": false,
      "stateMutability": "view",
      "type": "function",
      "signature": "0x081812fc"
    },
    {
      "constant": false,
      "inputs": [
        {
          "name": "to",
          "type": "address"
        },
        {
          "name": "tokenId",
          "type": "uint256"
        }
      ],
      "name": "approve",
      "outputs": [],
      "payable": false,
      "stateMutability": "nonpayable",
      "type": "function",
      "signature": "0x095ea7b3"
    },
    {
      "constant": true,
      "inputs": [],
      "name": "totalSupply",
      "outputs": [
        {
          "name": "",
          "type": "uint256"
        }
      ],
      "payable": false,
      "stateMutability": "view",
      "type": "function",
      "signature": "0x18160ddd"
    },
    {
      "constant": false,
      "inputs": [
        {
          "name": "from",
          "type": "address"
        },
        {
          "name": "to",
          "type": "address"
        },
        {
          "name": "tokenId",
          "type": "uint256"
        }
      ],
      "name": "transferFrom",
      "outputs": [],
      "payable": false,
      "stateMutability": "nonpayable",
      "type": "function",
      "signature": "0x23b872dd"
    },
    {
      "constant": true,
      "inputs": [
        {
          "name": "owner",
          "type": "address"
        },
        {
          "name": "index",
          "type": "uint256"
        }
      ],
      "name": "tokenOfOwnerByIndex",
      "outputs": [
        {
          "name": "",
          "type": "uint256"
        }
      ],
      "payable": false,
      "stateMutability": "view",
      "type": "function",
      "signature": "0x2f745c59"
    },
    {
      "constant": false,
      "inputs": [
        {
          "name": "from",
          "type": "address"
        },
        {
          "name": "to",
          "type": "address"
        },
        {
          "name": "tokenId",
          "type": "uint256"
        }
      ],
      "name": "safeTransferFrom",
      "outputs": [],
      "payable": false,
      "stateMutability": "nonpayable",
      "type": "function",
      "signature": "0x42842e0e"
    },
    {
      "constant": true,
      "inputs": [
        {
          "name": "index",
          "type": "uint256"
        }
      ],
      "name": "tokenByIndex",
      "outputs": [
        {
          "name": "",
          "type": "uint256"
        }
      ],
      "payable": false,
      "stateMutability": "view",
      "type": "function",
      "signature": "0x4f6ccce7"
    },
    {
      "constant": true,
      "inputs": [
        {
          "name": "tokenId",
          "type": "uint256"
        }
      ],
      "name": "ownerOf",
      "outputs": [
        {
          "name": "",
          "type": "address"
        }
      ],
      "payable": false,
      "stateMutability": "view",
      "type": "function",
      "signature": "0x6352211e"
    },
    {
      "constant": true,
      "inputs": [
        {
          "name": "owner",
          "type": "address"
        }
      ],
      "name": "balanceOf",
      "outputs": [
        {
          "name": "",
          "type": "uint256"
        }
      ],
      "payable": false,
      "stateMutability": "view",
      "type": "function",
      "signature": "0x70a08231"
    },
    {
      "constant": false,
      "inputs": [],
      "name": "renounceOwnership",
      "outputs": [],
      "payable": false,
      "stateMutability": "nonpayable",
      "type": "function",
      "signature": "0x715018a6"
    },
    {
      "constant": true,
      "inputs": [
        {
          "name": "",
          "type": "uint256"
        }
      ],
      "name": "products",
      "outputs": [
        {
          "name": "productId",
          "type": "uint256"
        },
        {
          "name": "productName",
          "type": "string"
        },
        {
          "name": "productCategory",
          "type": "string"
        }
      ],
      "payable": false,
      "stateMutability": "view",
      "type": "function",
      "signature": "0x7acc0b20"
    },
    {
      "constant": false,
      "inputs": [
        {
          "name": "tokenId",
          "type": "uint256"
        }
      ],
      "name": "clearApproval",
      "outputs": [],
      "payable": false,
      "stateMutability": "nonpayable",
      "type": "function",
      "signature": "0x7fdd5403"
    },
    {
      "constant": true,
      "inputs": [],
      "name": "owner",
      "outputs": [
        {
          "name": "",
          "type": "address"
        }
      ],
      "payable": false,
      "stateMutability": "view",
      "type": "function",
      "signature": "0x8da5cb5b"
    },
    {
      "constant": true,
      "inputs": [],
      "name": "isOwner",
      "outputs": [
        {
          "name": "",
          "type": "bool"
        }
      ],
      "payable": false,
      "stateMutability": "view",
      "type": "function",
      "signature": "0x8f32d59b"
    },
    {
      "constant": true,
      "inputs": [
        {
          "name": "tokenId",
          "type": "uint256"
        }
      ],
      "name": "ownerOfProduct",
      "outputs": [
        {
          "name": "",
          "type": "address"
        }
      ],
      "payable": false,
      "stateMutability": "view",
      "type": "function",
      "signature": "0x9247b5c6"
    },
    {
      "constant": true,
      "inputs": [],
      "name": "symbol",
      "outputs": [
        {
          "name": "",
          "type": "string"
        }
      ],
      "payable": false,
      "stateMutability": "view",
      "type": "function",
      "signature": "0x95d89b41"
    },
    {
      "constant": false,
      "inputs": [
        {
          "name": "to",
          "type": "address"
        },
        {
          "name": "approved",
          "type": "bool"
        }
      ],
      "name": "setApprovalForAll",
      "outputs": [],
      "payable": false,
      "stateMutability": "nonpayable",
      "type": "function",
      "signature": "0xa22cb465"
    },
    {
      "constant": false,
      "inputs": [
        {
          "name": "from",
          "type": "address"
        },
        {
          "name": "to",
          "type": "address"
        },
        {
          "name": "tokenId",
          "type": "uint256"
        },
        {
          "name": "_data",
          "type": "bytes"
        }
      ],
      "name": "safeTransferFrom",
      "outputs": [],
      "payable": false,
      "stateMutability": "nonpayable",
      "type": "function",
      "signature": "0xb88d4fde"
    },
    {
      "constant": true,
      "inputs": [
        {
          "name": "tokenId",
          "type": "uint256"
        }
      ],
      "name": "tokenURI",
      "outputs": [
        {
          "name": "",
          "type": "string"
        }
      ],
      "payable": false,
      "stateMutability": "view",
      "type": "function",
      "signature": "0xc87b56dd"
    },
    {
      "constant": true,
      "inputs": [
        {
          "name": "owner",
          "type": "address"
        },
        {
          "name": "operator",
          "type": "address"
        }
      ],
      "name": "isApprovedForAll",
      "outputs": [
        {
          "name": "",
          "type": "bool"
        }
      ],
      "payable": false,
      "stateMutability": "view",
      "type": "function",
      "signature": "0xe985e9c5"
    },
    {
      "constant": false,
      "inputs": [
        {
          "name": "newOwner",
          "type": "address"
        }
      ],
      "name": "transferOwnership",
      "outputs": [],
      "payable": false,
      "stateMutability": "nonpayable",
      "type": "function",
      "signature": "0xf2fde38b"
    },
    {
      "inputs": [
        {
          "name": "name",
          "type": "string"
        },
        {
          "name": "symbol",
          "type": "string"
        }
      ],
      "payable": false,
      "stateMutability": "nonpayable",
      "type": "constructor",
      "signature": "constructor"
    },
    {
      "anonymous": false,
      "inputs": [
        {
          "indexed": false,
          "name": "productId",
          "type": "uint256"
        },
        {
          "indexed": false,
          "name": "productName",
          "type": "string"
        },
        {
          "indexed": false,
          "name": "productCategory",
          "type": "string"
        }
      ],
      "name": "RegisterProduct",
      "type": "event",
      "signature": "0x1878e501c178de14f5ead295033f8029278774abe04396b245393f60abd0e4f1"
    },
    {
      "anonymous": false,
      "inputs": [
        {
          "indexed": false,
          "name": "currentOwner",
          "type": "address"
        },
        {
          "indexed": true,
          "name": "newOwner",
          "type": "address"
        },
        {
          "indexed": false,
          "name": "productId",
          "type": "uint256"
        },
        {
          "indexed": false,
          "name": "productName",
          "type": "string"
        }
      ],
      "name": "ApproveOwnership",
      "type": "event",
      "signature": "0xb025a7469436ed4df79477180fd7113d58bf81310284768fa2f186a434990d99"
    },
    {
      "anonymous": false,
      "inputs": [
        {
          "indexed": false,
          "name": "currentOwner",
          "type": "address"
        },
        {
          "indexed": false,
          "name": "newOwner",
          "type": "address"
        },
        {
          "indexed": false,
          "name": "product",
          "type": "uint256"
        }
      ],
      "name": "TakeOwnership",
      "type": "event",
      "signature": "0x3eaafb8364112dedddc5c7872b568e50214b3479795206fffd62243a140f0b5c"
    },
    {
      "anonymous": false,
      "inputs": [
        {
          "indexed": true,
          "name": "previousOwner",
          "type": "address"
        },
        {
          "indexed": true,
          "name": "newOwner",
          "type": "address"
        }
      ],
      "name": "OwnershipTransferred",
      "type": "event",
      "signature": "0x8be0079c531659141344cd1fd0a4f28419497f9722a3daafe3b4186f6b6457e0"
    },
    {
      "anonymous": false,
      "inputs": [
        {
          "indexed": true,
          "name": "from",
          "type": "address"
        },
        {
          "indexed": true,
          "name": "to",
          "type": "address"
        },
        {
          "indexed": true,
          "name": "tokenId",
          "type": "uint256"
        }
      ],
      "name": "Transfer",
      "type": "event",
      "signature": "0xddf252ad1be2c89b69c2b068fc378daa952ba7f163c4a11628f55a4df523b3ef"
    },
    {
      "anonymous": false,
      "inputs": [
        {
          "indexed": true,
          "name": "owner",
          "type": "address"
        },
        {
          "indexed": true,
          "name": "approved",
          "type": "address"
        },
        {
          "indexed": true,
          "name": "tokenId",
          "type": "uint256"
        }
      ],
      "name": "Approval",
      "type": "event",
      "signature": "0x8c5be1e5ebec7d5bd14f71427d1e84f3dd0314c0f7b2291e5b200ac8c7c3b925"
    },
    {
      "anonymous": false,
      "inputs": [
        {
          "indexed": true,
          "name": "owner",
          "type": "address"
        },
        {
          "indexed": true,
          "name": "operator",
          "type": "address"
        },
        {
          "indexed": false,
          "name": "approved",
          "type": "bool"
        }
      ],
      "name": "ApprovalForAll",
      "type": "event",
      "signature": "0x17307eab39ab6107e8899845ad3d59bd9653f200f220920489ca2b5937696c31"
    },
    {
      "constant": false,
      "inputs": [
        {
          "name": "_name",
          "type": "string"
        },
        {
          "name": "_category",
          "type": "string"
        }
      ],
      "name": "registerProduct",
      "outputs": [],
      "payable": false,
      "stateMutability": "nonpayable",
      "type": "function",
      "signature": "0x8fbd0dcf"
    },
    {
      "constant": true,
      "inputs": [],
      "name": "showOwnedProducts",
      "outputs": [
        {
          "name": "",
          "type": "uint256[]"
        }
      ],
      "payable": false,
      "stateMutability": "view",
      "type": "function",
      "signature": "0x16a6b621"
    },
    {
      "constant": true,
      "inputs": [
        {
          "name": "_tokenId",
          "type": "uint256"
        }
      ],
      "name": "checkIfApproved",
      "outputs": [
        {
          "name": "",
          "type": "bool"
        }
      ],
      "payable": false,
      "stateMutability": "view",
      "type": "function",
      "signature": "0xa599e153"
    },
    {
      "constant": false,
      "inputs": [
        {
          "name": "_to",
          "type": "address"
        },
        {
          "name": "_productId",
          "type": "uint256"
        }
      ],
      "name": "approveOwnership",
      "outputs": [],
      "payable": false,
      "stateMutability": "nonpayable",
      "type": "function",
      "signature": "0xd41eeddf"
    },
    {
      "constant": false,
      "inputs": [
        {
          "name": "_owner",
          "type": "address"
        },
        {
          "name": "_tokenId",
          "type": "uint256"
        }
      ],
      "name": "deleteOwnership",
      "outputs": [],
      "payable": false,
      "stateMutability": "nonpayable",
      "type": "function",
      "signature": "0x5cfaee62"
    }
  ],
  "bytecode": "0x60806040526000600d553480156200001657600080fd5b50604051620035f2380380620035f2833981018060405260408110156200003c57600080fd5b8101908080516401000000008111156200005557600080fd5b828101905060208101848111156200006c57600080fd5b81518560018202830111640100000000821117156200008a57600080fd5b50509291906020018051640100000000811115620000a757600080fd5b82810190506020810184811115620000be57600080fd5b8151856001820283011164010000000082111715620000dc57600080fd5b505092919050505081818181620001256301ffc9a77c010000000000000000000000000000000000000000000000000000000002620002d8640100000000026401000000009004565b620001626380ac58cd7c010000000000000000000000000000000000000000000000000000000002620002d8640100000000026401000000009004565b6200019f63780e9d637c010000000000000000000000000000000000000000000000000000000002620002d8640100000000026401000000009004565b8160099080519060200190620001b792919062000396565b5080600a9080519060200190620001d092919062000396565b506200020e635b5e139f7c010000000000000000000000000000000000000000000000000000000002620002d8640100000000026401000000009004565b5050505033600c60006101000a81548173ffffffffffffffffffffffffffffffffffffffff021916908373ffffffffffffffffffffffffffffffffffffffff160217905550600c60009054906101000a900473ffffffffffffffffffffffffffffffffffffffff1673ffffffffffffffffffffffffffffffffffffffff16600073ffffffffffffffffffffffffffffffffffffffff167f8be0079c531659141344cd1fd0a4f28419497f9722a3daafe3b4186f6b6457e060405160405180910390a3505062000445565b63ffffffff7c010000000000000000000000000000000000000000000000000000000002817bffffffffffffffffffffffffffffffffffffffffffffffffffffffff1916141515156200032a57600080fd5b6001600080837bffffffffffffffffffffffffffffffffffffffffffffffffffffffff19167bffffffffffffffffffffffffffffffffffffffffffffffffffffffff1916815260200190815260200160002060006101000a81548160ff02191690831515021790555050565b828054600181600116156101000203166002900490600052602060002090601f016020900481019282601f10620003d957805160ff19168380011785556200040a565b828001600101855582156200040a579182015b8281111562000409578251825591602001919060010190620003ec565b5b5090506200041991906200041d565b5090565b6200044291905b808211156200043e57600081600090555060010162000424565b5090565b90565b61319d80620004556000396000f3fe60806040526004361061016a576000357c0100000000000000000000000000000000000000000000000000000000900463ffffffff16806301ffc9a71461016f57806306fdde03146101e1578063081812fc14610271578063095ea7b3146102ec57806316a6b6211461034757806318160ddd146103b357806323b872dd146103de5780632f745c591461045957806342842e0e146104c85780634f6ccce7146105435780635cfaee62146105925780636352211e146105ed57806370a0823114610668578063715018a6146106cd5780637acc0b20146106e45780637fdd54031461080b5780638da5cb5b146108465780638f32d59b1461089d5780638fbd0dcf146108cc5780639247b5c614610a2b57806395d89b4114610aa6578063a22cb46514610b36578063a599e15314610b93578063b88d4fde14610be6578063c87b56dd14610cf8578063d41eeddf14610dac578063e985e9c514610e07578063f2fde38b14610e90575b600080fd5b34801561017b57600080fd5b506101c76004803603602081101561019257600080fd5b8101908080357bffffffffffffffffffffffffffffffffffffffffffffffffffffffff19169060200190929190505050610ee1565b604051808215151515815260200191505060405180910390f35b3480156101ed57600080fd5b506101f6610f48565b6040518080602001828103825283818151815260200191508051906020019080838360005b8381101561023657808201518184015260208101905061021b565b50505050905090810190601f1680156102635780820380516001836020036101000a031916815260200191505b509250505060405180910390f35b34801561027d57600080fd5b506102aa6004803603602081101561029457600080fd5b8101908080359060200190929190505050610fea565b604051808273ffffffffffffffffffffffffffffffffffffffff1673ffffffffffffffffffffffffffffffffffffffff16815260200191505060405180910390f35b3480156102f857600080fd5b506103456004803603604081101561030f57600080fd5b81019080803573ffffffffffffffffffffffffffffffffffffffff1690602001909291908035906020019092919050505061103b565b005b34801561035357600080fd5b5061035c611180565b6040518080602001828103825283818151815260200191508051906020019060200280838360005b8381101561039f578082015181840152602081019050610384565b505050509050019250505060405180910390f35b3480156103bf57600080fd5b506103c8611274565b6040518082815260200191505060405180910390f35b3480156103ea57600080fd5b506104576004803603606081101561040157600080fd5b81019080803573ffffffffffffffffffffffffffffffffffffffff169060200190929190803573ffffffffffffffffffffffffffffffffffffffff16906020019092919080359060200190929190505050611281565b005b34801561046557600080fd5b506104b26004803603604081101561047c57600080fd5b81019080803573ffffffffffffffffffffffffffffffffffffffff169060200190929190803590602001909291905050506112a6565b6040518082815260200191505060405180910390f35b3480156104d457600080fd5b50610541600480360360608110156104eb57600080fd5b81019080803573ffffffffffffffffffffffffffffffffffffffff169060200190929190803573ffffffffffffffffffffffffffffffffffffffff1690602001909291908035906020019092919050505061131d565b005b34801561054f57600080fd5b5061057c6004803603602081101561056657600080fd5b810190808035906020019092919050505061133e565b6040518082815260200191505060405180910390f35b34801561059e57600080fd5b506105eb600480360360408110156105b557600080fd5b81019080803573ffffffffffffffffffffffffffffffffffffffff16906020019092919080359060200190929190505050611376565b005b3480156105f957600080fd5b506106266004803603602081101561061057600080fd5b8101908080359060200190929190505050611384565b604051808273ffffffffffffffffffffffffffffffffffffffff1673ffffffffffffffffffffffffffffffffffffffff16815260200191505060405180910390f35b34801561067457600080fd5b506106b76004803603602081101561068b57600080fd5b81019080803573ffffffffffffffffffffffffffffffffffffffff169060200190929190505050611402565b6040518082815260200191505060405180910390f35b3480156106d957600080fd5b506106e2611486565b005b3480156106f057600080fd5b5061071d6004803603602081101561070757600080fd5b810190808035906020019092919050505061155a565b604051808481526020018060200180602001838103835285818151815260200191508051906020019080838360005b8381101561076757808201518184015260208101905061074c565b50505050905090810190601f1680156107945780820380516001836020036101000a031916815260200191505b50838103825284818151815260200191508051906020019080838360005b838110156107cd5780820151818401526020810190506107b2565b50505050905090810190601f1680156107fa5780820380516001836020036101000a031916815260200191505b509550505050505060405180910390f35b34801561081757600080fd5b506108446004803603602081101561082e57600080fd5b81019080803590602001909291905050506116c3565b005b34801561085257600080fd5b5061085b611786565b604051808273ffffffffffffffffffffffffffffffffffffffff1673ffffffffffffffffffffffffffffffffffffffff16815260200191505060405180910390f35b3480156108a957600080fd5b506108b26117b0565b604051808215151515815260200191505060405180910390f35b3480156108d857600080fd5b50610a29600480360360408110156108ef57600080fd5b810190808035906020019064010000000081111561090c57600080fd5b82018360208201111561091e57600080fd5b8035906020019184600183028401116401000000008311171561094057600080fd5b91908080601f016020809104026020016040519081016040528093929190818152602001838380828437600081840152601f19601f820116905080830192505050505050509192919290803590602001906401000000008111156109a357600080fd5b8201836020820111156109b557600080fd5b803590602001918460018302840111640100000000831117156109d757600080fd5b91908080601f016020809104026020016040519081016040528093929190818152602001838380828437600081840152601f19601f820116905080830192505050505050509192919290505050611808565b005b348015610a3757600080fd5b50610a6460048036036020811015610a4e57600080fd5b81019080803590602001909291905050506119f2565b604051808273ffffffffffffffffffffffffffffffffffffffff1673ffffffffffffffffffffffffffffffffffffffff16815260200191505060405180910390f35b348015610ab257600080fd5b50610abb611a34565b6040518080602001828103825283818151815260200191508051906020019080838360005b83811015610afb578082015181840152602081019050610ae0565b50505050905090810190601f168015610b285780820380516001836020036101000a031916815260200191505b509250505060405180910390f35b348015610b4257600080fd5b50610b9160048036036040811015610b5957600080fd5b81019080803573ffffffffffffffffffffffffffffffffffffffff169060200190929190803515159060200190929190505050611ad6565b005b348015610b9f57600080fd5b50610bcc60048036036020811015610bb657600080fd5b8101908080359060200190929190505050611c12565b604051808215151515815260200191505060405180910390f35b348015610bf257600080fd5b50610cf660048036036080811015610c0957600080fd5b81019080803573ffffffffffffffffffffffffffffffffffffffff169060200190929190803573ffffffffffffffffffffffffffffffffffffffff1690602001909291908035906020019092919080359060200190640100000000811115610c7057600080fd5b820183602082011115610c8257600080fd5b80359060200191846001830284011164010000000083111715610ca457600080fd5b91908080601f016020809104026020016040519081016040528093929190818152602001838380828437600081840152601f19601f820116905080830192505050505050509192919290505050611ca1565b005b348015610d0457600080fd5b50610d3160048036036020811015610d1b57600080fd5b8101908080359060200190929190505050611cc9565b6040518080602001828103825283818151815260200191508051906020019080838360005b83811015610d71578082015181840152602081019050610d56565b50505050905090810190601f168015610d9e5780820380516001836020036101000a031916815260200191505b509250505060405180910390f35b348015610db857600080fd5b50610e0560048036036040811015610dcf57600080fd5b81019080803573ffffffffffffffffffffffffffffffffffffffff16906020019092919080359060200190929190505050611d92565b005b348015610e1357600080fd5b50610e7660048036036040811015610e2a57600080fd5b81019080803573ffffffffffffffffffffffffffffffffffffffff169060200190929190803573ffffffffffffffffffffffffffffffffffffffff16906020019092919050505061202e565b604051808215151515815260200191505060405180910390f35b348015610e9c57600080fd5b50610edf60048036036020811015610eb357600080fd5b81019080803573ffffffffffffffffffffffffffffffffffffffff1690602001909291905050506120c2565b005b6000806000837bffffffffffffffffffffffffffffffffffffffffffffffffffffffff19167bffffffffffffffffffffffffffffffffffffffffffffffffffffffff1916815260200190815260200160002060009054906101000a900460ff169050919050565b606060098054600181600116156101000203166002900480601f016020809104026020016040519081016040528092919081815260200182805460018160011615610100020316600290048015610fe05780601f10610fb557610100808354040283529160200191610fe0565b820191906000526020600020905b815481529060010190602001808311610fc357829003601f168201915b5050505050905090565b6000610ff5826120e1565b151561100057600080fd5b6002600083815260200190815260200160002060009054906101000a900473ffffffffffffffffffffffffffffffffffffffff169050919050565b600061104682611384565b90508073ffffffffffffffffffffffffffffffffffffffff168373ffffffffffffffffffffffffffffffffffffffff161415151561108357600080fd5b8073ffffffffffffffffffffffffffffffffffffffff163373ffffffffffffffffffffffffffffffffffffffff1614806110c357506110c2813361202e565b5b15156110ce57600080fd5b826002600084815260200190815260200160002060006101000a81548173ffffffffffffffffffffffffffffffffffffffff021916908373ffffffffffffffffffffffffffffffffffffffff160217905550818373ffffffffffffffffffffffffffffffffffffffff168273ffffffffffffffffffffffffffffffffffffffff167f8c5be1e5ebec7d5bd14f71427d1e84f3dd0314c0f7b2291e5b200ac8c7c3b92560405160405180910390a4505050565b6060600061118d33611402565b90506060816040519080825280602002602001820160405280156111c05781602001602082028038833980820191505090505b509050600080905060008090505b600e8054905081101561126a573373ffffffffffffffffffffffffffffffffffffffff1661121b600e8381548110151561120457fe5b9060005260206000209060030201600001546119f2565b73ffffffffffffffffffffffffffffffffffffffff16141561125d5780838381518110151561124657fe5b906020019060200201818152505081806001019250505b80806001019150506111ce565b5081935050505090565b6000600780549050905090565b61128b3382612153565b151561129657600080fd5b6112a18383836121e8565b505050565b60006112b183611402565b821015156112be57600080fd5b600560008473ffffffffffffffffffffffffffffffffffffffff1673ffffffffffffffffffffffffffffffffffffffff1681526020019081526020016000208281548110151561130a57fe5b9060005260206000200154905092915050565b6113398383836020604051908101604052806000815250611ca1565b505050565b6000611348611274565b8210151561135557600080fd5b60078281548110151561136457fe5b90600052602060002001549050919050565b611380828261220c565b5050565b6000806001600084815260200190815260200160002060009054906101000a900473ffffffffffffffffffffffffffffffffffffffff169050600073ffffffffffffffffffffffffffffffffffffffff168173ffffffffffffffffffffffffffffffffffffffff16141515156113f957600080fd5b80915050919050565b60008073ffffffffffffffffffffffffffffffffffffffff168273ffffffffffffffffffffffffffffffffffffffff161415151561143f57600080fd5b600360008373ffffffffffffffffffffffffffffffffffffffff1673ffffffffffffffffffffffffffffffffffffffff168152602001908152602001600020549050919050565b61148e6117b0565b151561149957600080fd5b600073ffffffffffffffffffffffffffffffffffffffff16600c60009054906101000a900473ffffffffffffffffffffffffffffffffffffffff1673ffffffffffffffffffffffffffffffffffffffff167f8be0079c531659141344cd1fd0a4f28419497f9722a3daafe3b4186f6b6457e060405160405180910390a36000600c60006101000a81548173ffffffffffffffffffffffffffffffffffffffff021916908373ffffffffffffffffffffffffffffffffffffffff160217905550565b600e8181548110151561156957fe5b9060005260206000209060030201600091509050806000015490806001018054600181600116156101000203166002900480601f01602080910402602001604051908101604052809291908181526020018280546001816001161561010002031660029004801561161b5780601f106115f05761010080835404028352916020019161161b565b820191906000526020600020905b8154815290600101906020018083116115fe57829003601f168201915b505050505090806002018054600181600116156101000203166002900480601f0160208091040260200160405190810160405280929190818152602001828054600181600116156101000203166002900480156116b95780601f1061168e576101008083540402835291602001916116b9565b820191906000526020600020905b81548152906001019060200180831161169c57829003601f168201915b5050505050905083565b3373ffffffffffffffffffffffffffffffffffffffff166002600083815260200190815260200160002060009054906101000a900473ffffffffffffffffffffffffffffffffffffffff1673ffffffffffffffffffffffffffffffffffffffff1614151561173057600080fd5b60006002600083815260200190815260200160002060006101000a81548173ffffffffffffffffffffffffffffffffffffffff021916908373ffffffffffffffffffffffffffffffffffffffff16021790555050565b6000600c60009054906101000a900473ffffffffffffffffffffffffffffffffffffffff16905090565b6000600c60009054906101000a900473ffffffffffffffffffffffffffffffffffffffff1673ffffffffffffffffffffffffffffffffffffffff163373ffffffffffffffffffffffffffffffffffffffff1614905090565b6000600e805490509050600061181d8261226b565b9050611829338261229f565b6001600e606060405190810160405280848152602001878152602001868152509080600181540180825580915050906001820390600052602060002090600302016000909192909190915060008201518160000155602082015181600101908051906020019061189a929190613036565b5060408201518160020190805190602001906118b7929190613036565b50505003600d81905550600d54600f6000838152602001908152602001600020819055507f1878e501c178de14f5ead295033f8029278774abe04396b245393f60abd0e4f1818585604051808481526020018060200180602001838103835285818151815260200191508051906020019080838360005b8381101561194957808201518184015260208101905061192e565b50505050905090810190601f1680156119765780820380516001836020036101000a031916815260200191505b50838103825284818151815260200191508051906020019080838360005b838110156119af578082015181840152602081019050611994565b50505050905090810190601f1680156119dc5780820380516001836020036101000a031916815260200191505b509550505050505060405180910390a150505050565b6000806001600084815260200190815260200160002060009054906101000a900473ffffffffffffffffffffffffffffffffffffffff16905080915050919050565b6060600a8054600181600116156101000203166002900480601f016020809104026020016040519081016040528092919081815260200182805460018160011615610100020316600290048015611acc5780601f10611aa157610100808354040283529160200191611acc565b820191906000526020600020905b815481529060010190602001808311611aaf57829003601f168201915b5050505050905090565b3373ffffffffffffffffffffffffffffffffffffffff168273ffffffffffffffffffffffffffffffffffffffff1614151515611b1157600080fd5b80600460003373ffffffffffffffffffffffffffffffffffffffff1673ffffffffffffffffffffffffffffffffffffffff16815260200190815260200160002060008473ffffffffffffffffffffffffffffffffffffffff1673ffffffffffffffffffffffffffffffffffffffff16815260200190815260200160002060006101000a81548160ff0219169083151502179055508173ffffffffffffffffffffffffffffffffffffffff163373ffffffffffffffffffffffffffffffffffffffff167f17307eab39ab6107e8899845ad3d59bd9653f200f220920489ca2b5937696c3183604051808215151515815260200191505060405180910390a35050565b60008073ffffffffffffffffffffffffffffffffffffffff16611c3483610fea565b73ffffffffffffffffffffffffffffffffffffffff161480611c8957503373ffffffffffffffffffffffffffffffffffffffff16611c7183610fea565b73ffffffffffffffffffffffffffffffffffffffff16145b15611c975760009050611c9c565b600190505b919050565b611cac848484611281565b611cb8848484846122c0565b1515611cc357600080fd5b50505050565b6060611cd4826120e1565b1515611cdf57600080fd5b600b60008381526020019081526020016000208054600181600116156101000203166002900480601f016020809104026020016040519081016040528092919081815260200182805460018160011615610100020316600290048015611d865780601f10611d5b57610100808354040283529160200191611d86565b820191906000526020600020905b815481529060010190602001808311611d6957829003601f168201915b50505050509050919050565b611d9c828261103b565b6000600f6000838152602001908152602001600020549050611dbc6130b6565b600e82815481101515611dcb57fe5b90600052602060002090600302016060604051908101604052908160008201548152602001600182018054600181600116156101000203166002900480601f016020809104026020016040519081016040528092919081815260200182805460018160011615610100020316600290048015611e885780601f10611e5d57610100808354040283529160200191611e88565b820191906000526020600020905b815481529060010190602001808311611e6b57829003601f168201915b50505050508152602001600282018054600181600116156101000203166002900480601f016020809104026020016040519081016040528092919081815260200182805460018160011615610100020316600290048015611f2a5780601f10611eff57610100808354040283529160200191611f2a565b820191906000526020600020905b815481529060010190602001808311611f0d57829003601f168201915b50505050508152505090508373ffffffffffffffffffffffffffffffffffffffff167fb025a7469436ed4df79477180fd7113d58bf81310284768fa2f186a434990d9933858460200151604051808473ffffffffffffffffffffffffffffffffffffffff1673ffffffffffffffffffffffffffffffffffffffff16815260200183815260200180602001828103825283818151815260200191508051906020019080838360005b83811015611fec578082015181840152602081019050611fd1565b50505050905090810190601f1680156120195780820380516001836020036101000a031916815260200191505b5094505050505060405180910390a250505050565b6000600460008473ffffffffffffffffffffffffffffffffffffffff1673ffffffffffffffffffffffffffffffffffffffff16815260200190815260200160002060008373ffffffffffffffffffffffffffffffffffffffff1673ffffffffffffffffffffffffffffffffffffffff16815260200190815260200160002060009054906101000a900460ff16905092915050565b6120ca6117b0565b15156120d557600080fd5b6120de816124e3565b50565b6000806001600084815260200190815260200160002060009054906101000a900473ffffffffffffffffffffffffffffffffffffffff169050600073ffffffffffffffffffffffffffffffffffffffff168173ffffffffffffffffffffffffffffffffffffffff161415915050919050565b60008061215f83611384565b90508073ffffffffffffffffffffffffffffffffffffffff168473ffffffffffffffffffffffffffffffffffffffff1614806121ce57508373ffffffffffffffffffffffffffffffffffffffff166121b684610fea565b73ffffffffffffffffffffffffffffffffffffffff16145b806121df57506121de818561202e565b5b91505092915050565b6121f38383836125df565b6121fd8382612844565b61220782826129e8565b505050565b6122168282612aaf565b6000600b600083815260200190815260200160002080546001816001161561010002031660029004905014151561226757600b6000828152602001908152602001600020600061226691906130d8565b5b5050565b6000816040516020018082815260200191505060405160208183030381529060405280519060200120600190049050919050565b6122a98282612ae9565b6122b382826129e8565b6122bc81612c82565b5050565b60006122e18473ffffffffffffffffffffffffffffffffffffffff16612cce565b15156122f057600190506124db565b60008473ffffffffffffffffffffffffffffffffffffffff1663150b7a02338887876040518563ffffffff167c0100000000000000000000000000000000000000000000000000000000028152600401808573ffffffffffffffffffffffffffffffffffffffff1673ffffffffffffffffffffffffffffffffffffffff1681526020018473ffffffffffffffffffffffffffffffffffffffff1673ffffffffffffffffffffffffffffffffffffffff16815260200183815260200180602001828103825283818151815260200191508051906020019080838360005b838110156123e75780820151818401526020810190506123cc565b50505050905090810190601f1680156124145780820380516001836020036101000a031916815260200191505b5095505050505050602060405180830381600087803b15801561243657600080fd5b505af115801561244a573d6000803e3d6000fd5b505050506040513d602081101561246057600080fd5b8101908080519060200190929190505050905063150b7a027c0100000000000000000000000000000000000000000000000000000000027bffffffffffffffffffffffffffffffffffffffffffffffffffffffff1916817bffffffffffffffffffffffffffffffffffffffffffffffffffffffff1916149150505b949350505050565b600073ffffffffffffffffffffffffffffffffffffffff168173ffffffffffffffffffffffffffffffffffffffff161415151561251f57600080fd5b8073ffffffffffffffffffffffffffffffffffffffff16600c60009054906101000a900473ffffffffffffffffffffffffffffffffffffffff1673ffffffffffffffffffffffffffffffffffffffff167f8be0079c531659141344cd1fd0a4f28419497f9722a3daafe3b4186f6b6457e060405160405180910390a380600c60006101000a81548173ffffffffffffffffffffffffffffffffffffffff021916908373ffffffffffffffffffffffffffffffffffffffff16021790555050565b8273ffffffffffffffffffffffffffffffffffffffff166125ff82611384565b73ffffffffffffffffffffffffffffffffffffffff1614151561262157600080fd5b600073ffffffffffffffffffffffffffffffffffffffff168273ffffffffffffffffffffffffffffffffffffffff161415151561265d57600080fd5b61266681612ce1565b6126b96001600360008673ffffffffffffffffffffffffffffffffffffffff1673ffffffffffffffffffffffffffffffffffffffff16815260200190815260200160002054612da190919063ffffffff16565b600360008573ffffffffffffffffffffffffffffffffffffffff1673ffffffffffffffffffffffffffffffffffffffff1681526020019081526020016000208190555061274f6001600360008573ffffffffffffffffffffffffffffffffffffffff1673ffffffffffffffffffffffffffffffffffffffff16815260200190815260200160002054612dc390919063ffffffff16565b600360008473ffffffffffffffffffffffffffffffffffffffff1673ffffffffffffffffffffffffffffffffffffffff16815260200190815260200160002081905550816001600083815260200190815260200160002060006101000a81548173ffffffffffffffffffffffffffffffffffffffff021916908373ffffffffffffffffffffffffffffffffffffffff160217905550808273ffffffffffffffffffffffffffffffffffffffff168473ffffffffffffffffffffffffffffffffffffffff167fddf252ad1be2c89b69c2b068fc378daa952ba7f163c4a11628f55a4df523b3ef60405160405180910390a4505050565b600061289c6001600560008673ffffffffffffffffffffffffffffffffffffffff1673ffffffffffffffffffffffffffffffffffffffff16815260200190815260200160002080549050612da190919063ffffffff16565b9050600060066000848152602001908152602001600020549050818114151561298f576000600560008673ffffffffffffffffffffffffffffffffffffffff1673ffffffffffffffffffffffffffffffffffffffff1681526020019081526020016000208381548110151561290d57fe5b9060005260206000200154905080600560008773ffffffffffffffffffffffffffffffffffffffff1673ffffffffffffffffffffffffffffffffffffffff1681526020019081526020016000208381548110151561296757fe5b9060005260206000200181905550816006600083815260200190815260200160002081905550505b600560008573ffffffffffffffffffffffffffffffffffffffff1673ffffffffffffffffffffffffffffffffffffffff1681526020019081526020016000208054809190600190036129e19190613120565b5050505050565b600560008373ffffffffffffffffffffffffffffffffffffffff1673ffffffffffffffffffffffffffffffffffffffff168152602001908152602001600020805490506006600083815260200190815260200160002081905550600560008373ffffffffffffffffffffffffffffffffffffffff1673ffffffffffffffffffffffffffffffffffffffff1681526020019081526020016000208190806001815401808255809150509060018203906000526020600020016000909192909190915055505050565b612ab98282612de4565b612ac38282612844565b60006006600083815260200190815260200160002081905550612ae581612f78565b5050565b600073ffffffffffffffffffffffffffffffffffffffff168273ffffffffffffffffffffffffffffffffffffffff1614151515612b2557600080fd5b612b2e816120e1565b151515612b3a57600080fd5b816001600083815260200190815260200160002060006101000a81548173ffffffffffffffffffffffffffffffffffffffff021916908373ffffffffffffffffffffffffffffffffffffffff160217905550612bdf6001600360008573ffffffffffffffffffffffffffffffffffffffff1673ffffffffffffffffffffffffffffffffffffffff16815260200190815260200160002054612dc390919063ffffffff16565b600360008473ffffffffffffffffffffffffffffffffffffffff1673ffffffffffffffffffffffffffffffffffffffff16815260200190815260200160002081905550808273ffffffffffffffffffffffffffffffffffffffff16600073ffffffffffffffffffffffffffffffffffffffff167fddf252ad1be2c89b69c2b068fc378daa952ba7f163c4a11628f55a4df523b3ef60405160405180910390a45050565b6007805490506008600083815260200190815260200160002081905550600781908060018154018082558091505090600182039060005260206000200160009091929091909150555050565b600080823b905060008111915050919050565b600073ffffffffffffffffffffffffffffffffffffffff166002600083815260200190815260200160002060009054906101000a900473ffffffffffffffffffffffffffffffffffffffff1673ffffffffffffffffffffffffffffffffffffffff16141515612d9e5760006002600083815260200190815260200160002060006101000a81548173ffffffffffffffffffffffffffffffffffffffff021916908373ffffffffffffffffffffffffffffffffffffffff1602179055505b50565b6000828211151515612db257600080fd5b600082840390508091505092915050565b6000808284019050838110151515612dda57600080fd5b8091505092915050565b8173ffffffffffffffffffffffffffffffffffffffff16612e0482611384565b73ffffffffffffffffffffffffffffffffffffffff16141515612e2657600080fd5b612e2f81612ce1565b612e826001600360008573ffffffffffffffffffffffffffffffffffffffff1673ffffffffffffffffffffffffffffffffffffffff16815260200190815260200160002054612da190919063ffffffff16565b600360008473ffffffffffffffffffffffffffffffffffffffff1673ffffffffffffffffffffffffffffffffffffffff1681526020019081526020016000208190555060006001600083815260200190815260200160002060006101000a81548173ffffffffffffffffffffffffffffffffffffffff021916908373ffffffffffffffffffffffffffffffffffffffff16021790555080600073ffffffffffffffffffffffffffffffffffffffff168373ffffffffffffffffffffffffffffffffffffffff167fddf252ad1be2c89b69c2b068fc378daa952ba7f163c4a11628f55a4df523b3ef60405160405180910390a45050565b6000612f936001600780549050612da190919063ffffffff16565b90506000600860008481526020019081526020016000205490506000600783815481101515612fbe57fe5b9060005260206000200154905080600783815481101515612fdb57fe5b906000526020600020018190555081600860008381526020019081526020016000208190555060078054809190600190036130169190613120565b506000600860008681526020019081526020016000208190555050505050565b828054600181600116156101000203166002900490600052602060002090601f016020900481019282601f1061307757805160ff19168380011785556130a5565b828001600101855582156130a5579182015b828111156130a4578251825591602001919060010190613089565b5b5090506130b2919061314c565b5090565b6060604051908101604052806000815260200160608152602001606081525090565b50805460018160011615610100020316600290046000825580601f106130fe575061311d565b601f01602090049060005260206000209081019061311c919061314c565b5b50565b81548183558181111561314757818360005260206000209182019101613146919061314c565b5b505050565b61316e91905b8082111561316a576000816000905550600101613152565b5090565b9056fea165627a7a72305820818d91a92035994cbfa955d6a973756c018673c59558ab503bb63490e78841590029",
  "source": "pragma solidity ^0.5.0;\n\nimport \"../node_modules/openzeppelin-solidity/contracts/token/ERC721/ERC721Full.sol\";\nimport \"../node_modules/openzeppelin-solidity/contracts/ownership/Ownable.sol\";\n\n/// @title A contract for managing ownerships\n/// @author akira-19\n/// @notice In this contract, you can register your product to blockchain, which everyone can see what is your product. Also, able to give the ownerships.\ncontract ProductOwnership is ERC721Full, Ownable {\n    uint incrementId = 0;\n\n    constructor(string memory name, string memory symbol) ERC721Full(name, symbol) public {\n\n    }\n\n    struct product {\n        uint productId;\n        string productName;\n        string productCategory;\n    }\n    product[] public products;\n\n    mapping (uint => uint) tokenIdToArrayElemNum;\n\n    event RegisterProduct(uint productId, string productName, string productCategory);\n    event ApproveOwnership(address currentOwner, address indexed newOwner, uint productId, string productName);\n    event TakeOwnership(address currentOwner, address newOwner, uint product);\n\n    modifier onlyOwnerOf(uint _productId) {\n        require(super.ownerOf(_productId) == msg.sender);\n        _;\n    }\n\n    /**\n     * @dev Register a product as the sender's belongings on blockchain\n     * @param _name of the product and product category\n     */\n    function registerProduct(string memory _name, string memory _category) public {\n        uint currentNumberOfProducts = products.length;\n        uint rondNum = _generateRondomNumber(currentNumberOfProducts);\n        super._mint(msg.sender, rondNum);\n        incrementId = products.push(product(rondNum, _name, _category)) - 1;\n        tokenIdToArrayElemNum[rondNum] = incrementId;\n\n        emit RegisterProduct(rondNum, _name, _category);\n    }\n\n    function _generateRondomNumber(uint _num) private pure returns (uint) {\n        return uint(keccak256(abi.encode(_num)));\n    }\n\n    function showOwnedProducts() public view returns(uint[] memory) {\n        uint ownedProductCount = super.balanceOf(msg.sender);\n        uint[] memory product_ids = new uint[](ownedProductCount);\n        uint counter = 0;\n        for(uint i=0; i < products.length; i++){\n           if(super.ownerOfProduct(products[i].productId) == msg.sender){\n               product_ids[counter] = i;\n               counter++;\n           }\n        }\n        return product_ids;\n    }\n\n    function checkIfApproved(uint _tokenId) public view returns(bool) {\n        if (getApproved(_tokenId) == address(0) || getApproved(_tokenId) == msg.sender){\n            return false;\n        }else{\n            return true;\n        }\n    }\n\n    function approveOwnership(address _to, uint _productId) public {\n        super.approve(_to, _productId);\n        uint arrayElemNum = tokenIdToArrayElemNum[_productId];\n        product memory prd = products[arrayElemNum];\n        emit ApproveOwnership(msg.sender, _to, _productId, prd.productName);\n    }\n\n    function deleteOwnership(address _owner, uint256 _tokenId) public {\n        super._burn(_owner, _tokenId);\n    }\n\n\n\n\n\n}\n",
  "sourcePath": "/Users/akira/ethereum/dapps/ProductOwnership/contracts/ProducOwnership.sol",
  "compiler": {
    "name": "solc",
    "version": "0.5.0+commit.1d4f565a.Emscripten.clang"
  },
  "schemaVersion": "3.0.1",
  "updatedAt": "2019-02-28T17:52:42.264Z",
  "devdoc": {
    "author": "akira-19",
    "methods": {
      "approve(address,uint256)": {
        "details": "Approves another address to transfer the given token ID The zero address indicates there is no approved address. There can only be one approved address per token at a given time. Can only be called by the token owner or an approved operator.",
        "params": {
          "to": "address to be approved for the given token ID",
          "tokenId": "uint256 ID of the token to be approved"
        }
      },
      "balanceOf(address)": {
        "details": "Gets the balance of the specified address",
        "params": {
          "owner": "address to query the balance of"
        },
        "return": "uint256 representing the amount owned by the passed address"
      },
      "getApproved(uint256)": {
        "details": "Gets the approved address for a token ID, or zero if no address set Reverts if the token ID does not exist.",
        "params": {
          "tokenId": "uint256 ID of the token to query the approval of"
        },
        "return": "address currently approved for the given token ID"
      },
      "isApprovedForAll(address,address)": {
        "details": "Tells whether an operator is approved by a given owner",
        "params": {
          "operator": "operator address which you want to query the approval of",
          "owner": "owner address which you want to query the approval of"
        },
        "return": "bool whether the given operator is approved by the given owner"
      },
      "isOwner()": {
        "return": "true if `msg.sender` is the owner of the contract."
      },
      "name()": {
        "details": "Gets the token name",
        "return": "string representing the token name"
      },
      "owner()": {
        "return": "the address of the owner."
      },
      "ownerOf(uint256)": {
        "details": "Gets the owner of the specified token ID",
        "params": {
          "tokenId": "uint256 ID of the token to query the owner of"
        },
        "return": "owner address currently marked as the owner of the given token ID"
      },
      "registerProduct(string,string)": {
        "details": "Register a product as the sender's belongings on blockchain",
        "params": {
          "_name": "of the product and product category"
        }
      },
      "renounceOwnership()": {
        "details": "Allows the current owner to relinquish control of the contract."
      },
      "safeTransferFrom(address,address,uint256)": {
        "details": "Safely transfers the ownership of a given token ID to another address If the target address is a contract, it must implement `onERC721Received`, which is called upon a safe transfer, and return the magic value `bytes4(keccak256(\"onERC721Received(address,address,uint256,bytes)\"))`; otherwise, the transfer is reverted.     * Requires the msg sender to be the owner, approved, or operator",
        "params": {
          "from": "current owner of the token",
          "to": "address to receive the ownership of the given token ID",
          "tokenId": "uint256 ID of the token to be transferred"
        }
      },
      "safeTransferFrom(address,address,uint256,bytes)": {
        "details": "Safely transfers the ownership of a given token ID to another address If the target address is a contract, it must implement `onERC721Received`, which is called upon a safe transfer, and return the magic value `bytes4(keccak256(\"onERC721Received(address,address,uint256,bytes)\"))`; otherwise, the transfer is reverted. Requires the msg sender to be the owner, approved, or operator",
        "params": {
          "_data": "bytes data to send along with a safe transfer check",
          "from": "current owner of the token",
          "to": "address to receive the ownership of the given token ID",
          "tokenId": "uint256 ID of the token to be transferred"
        }
      },
      "setApprovalForAll(address,bool)": {
        "details": "Sets or unsets the approval of a given operator An operator is allowed to transfer all tokens of the sender on their behalf",
        "params": {
          "approved": "representing the status of the approval to be set",
          "to": "operator address to set the approval"
        }
      },
      "supportsInterface(bytes4)": {
        "details": "implement supportsInterface(bytes4) using a lookup table"
      },
      "symbol()": {
        "details": "Gets the token symbol",
        "return": "string representing the token symbol"
      },
      "tokenByIndex(uint256)": {
        "details": "Gets the token ID at a given index of all the tokens in this contract Reverts if the index is greater or equal to the total number of tokens",
        "params": {
          "index": "uint256 representing the index to be accessed of the tokens list"
        },
        "return": "uint256 token ID at the given index of the tokens list"
      },
      "tokenOfOwnerByIndex(address,uint256)": {
        "details": "Gets the token ID at a given index of the tokens list of the requested owner",
        "params": {
          "index": "uint256 representing the index to be accessed of the requested tokens list",
          "owner": "address owning the tokens list to be accessed"
        },
        "return": "uint256 token ID at the given index of the tokens list owned by the requested address"
      },
      "tokenURI(uint256)": {
        "details": "Returns an URI for a given token ID Throws if the token ID does not exist. May return an empty string.",
        "params": {
          "tokenId": "uint256 ID of the token to query"
        }
      },
      "totalSupply()": {
        "details": "Gets the total amount of tokens stored by the contract",
        "return": "uint256 representing the total amount of tokens"
      },
      "transferFrom(address,address,uint256)": {
        "details": "Transfers the ownership of a given token ID to another address Usage of this method is discouraged, use `safeTransferFrom` whenever possible Requires the msg sender to be the owner, approved, or operator",
        "params": {
          "from": "current owner of the token",
          "to": "address to receive the ownership of the given token ID",
          "tokenId": "uint256 ID of the token to be transferred"
        }
      },
      "transferOwnership(address)": {
        "details": "Allows the current owner to transfer control of the contract to a newOwner.",
        "params": {
          "newOwner": "The address to transfer ownership to."
        }
      }
    },
    "title": "A contract for managing ownerships"
  },
  "userdoc": {
    "methods": {
      "renounceOwnership()": {
        "notice": "Renouncing to ownership will leave the contract without an owner. It will not be possible to call the functions with the `onlyOwner` modifier anymore."
      }
    },
    "notice": "In this contract, you can register your product to blockchain, which everyone can see what is your product. Also, able to give the ownerships."
  }
}